:020000040800F2
:10000000A8070020CD0100082919000821190008BF
:1000100025190008D5020008551900080000000045
:10002000000000000000000000000000311900087E
:10003000D9020008000000002D1900083519000839
:10004000E7010008E7010008E7010008E7010008F0
:10005000E7010008E7010008E7010008E7010008E0
:10006000E7010008E7010008E7010008E7010008D0
:10007000E7010008E7010008E7010008E7010008C0
:10008000E7010008E7010008E7010008E7010008B0
:10009000E7010008E7010008E7010008E7010008A0
:1000A000E7010008E7010008E7010008E701000890
:1000B0003D190008E701000849190008E701000898
:1000C000E7010008E7010008E7010008E701000870
:1000D000E7010008E7010008E7010008E701000860
:1000E000E7010008E7010008E7010008E701000850
:1000F000E7010008E7010008E7010008E701000840
:10010000E7010008E7010008E7010008E70100082F
:10011000E7010008E7010008E7010008E70100081F
:10012000E7010008E7010008E7010008E70100080F
:1001300000F002F800F03AF80AA090E8000C8244BF
:100140008344AAF10107DA4501D100F02FF8AFF29C
:10015000090EBAE80F0013F0010F18BFFB1A43F0A5
:1001600001031847D41D0000F41D0000103A24BFFD
:1001700078C878C1FAD8520724BF30C830C144BF0C
:1001800004680C607047000000230024002500264E
:10019000103A28BF78C1FBD8520728BF30C148BFEA
:1001A0000B6070471FB51FBD10B510BD00F058F8AB
:1001B0001146FFF7F7FF01F0CFFB00F076F803B42C
:1001C000FFF7F2FF03BC00F07DF80000094880470C
:1001D00009480047FEE7FEE7FEE7FEE7FEE7FEE729
:1001E000FEE7FEE7FEE7FEE704480549054A064B41
:1001F000704700003919000831010008A8010020EB
:10020000A8070020A8030020A80300204FF0000248
:1002100000B5134694469646203922BFA0E80C50FC
:10022000A0E80C50B1F12001BFF4F7AF090728BFD7
:10023000A0E80C5048BF0CC05DF804EB890028BF53
:1002400040F8042B08BF704748BF20F8022B11F07C
:10025000804F18BF00F8012B7047704770477047F8
:10026000754600F02BF8AE4605006946534620F06F
:100270000700854618B020B5FFF7B6FFBDE820405F
:100280004FF000064FF000074FF000084FF0000B52
:10029000AC46ACE8C009ACE8C009ACE8C009ACE8C1
:1002A000C00921F007018D46704710B50446AFF331
:1002B00000802046BDE81040FFF781BF004870472E
:1002C0001000002001491820ABBEFEE72600020006
:1002D00070470000FEE70000704700002DE9F04F76
:1002E00083B041F60043C4F201030E68062298422F
:1002F000019008BF0522002E009200F0ED800198C9
:1003000040F20C45A0F18043A3F584334FEAB327B4
:1003100040F200404FF6FF73C4F20105C4F2010041
:10032000009A4FF0000E4FF0010CC1F210034FF095
:10033000000A4FF0000B4FF00F08052F38BF3A4668
:10034000009208E00E680AF1010A36FA0AF20EF18C
:10035000040E00F0C1800CFA0AF916EA090FF1D078
:100360004E689E4212DC122E56D8DFE806F0350B9E
:100370004549555555555555555555555555554D51
:10038000510000BFD1F80CB046E000BF4FF6FF723D
:10039000C1F2210296420FDC0022C1F21102964204
:1003A0001AD00022C1F21202964215D00022C1F2E8
:1003B0002102964210D02FE00022C1F22202964282
:1003C0000AD00022C1F23102964205D00022C1F2C9
:1003D0003202964220D100BF8E684EB1012E019AA2
:1003E00014BFC2F81490C2F810904FF0080B13E03D
:1003F0004FF0040B10E000BFCF6807F1080B0BE0D3
:100400004FF0000B08E000BFCF6807F1040B03E0DA
:10041000CF6807F10C0B00BF7446BAF1080F28BF74
:10042000203C019F28BF04373E6808FA04F226EA00
:1004300002020BFA04F632433A60CA79D2067FF51B
:1004400081AF41F21807C4F202073A684FF6084C30
:1004500042F001023A603A68CFF6FF7C02F00102F6
:100460000292029A2AF00302024452F80C700EF033
:100470000C0608FA06F4A743009C04FA06F6374374
:1004800042F80C70D1F804C05FEACC32026854BF65
:1004900022EA090642EA09065FEA8C3206604268EF
:1004A00054BF22EA090642EA09065FEACC22466006
:1004B000826854BF22EA090642EA09065FEA8C22F2
:1004C00086604FF0010C2A6854BF22EA090642EA0E
:1004D00009062E6036E700BF03B0BDE8F08F0000CC
:1004E00040F2A010C2F200000068704740F2000025
:1004F00040F2A011C2F20000C2F2000100780A68C6
:10050000104408607047000080B542F20000C4F259
:100510000200016841F010010160032000F082F840
:100520000F2000F005F800F027F8002080BD000043
:1005300070B540F20006C2F2000640F208013278BF
:10054000C2F200014FF47A730968B3FBF2F2044679
:10055000B1FBF2F1084600F057FB0F2C4FF00105FC
:1005600008D838B94FF0FF3021460022002500F0AE
:100570002DF87460284670BD82B041F21800C4F2B4
:100580000200016841F001010160016801F0010110
:1005900001910199416841F080514160406800F04B
:1005A00080500090009802B070470000002848BFBB
:1005B000704700F01F01012202FA01F14EF2001211
:1005C0004009CEF2000242F82010704710B54EF6F6
:1005D0000C5CCEF2000CDCF80030C3F3022E8EF07F
:1005E0000704042C28BF0424BEF103034FF0FF3E90
:1005F0000EFA04F438BF0023A14399400EFA03F326
:100600009A43114300F00F02043A624409010C328C
:1006100000F16043B0F1FF3FC8BF03F564421170C1
:1006200010BD00004EF60C51CEF200010A684FF6E4
:10063000FF031A4060F30A2242F0806040F0FD7030
:10064000086070472DE9F04381B0002800F08580F4
:1006500042F20008C4F202080446D8F800000D4631
:1006600000F0070088420CD2D8F8000020F0070004
:100670002843C8F80000D8F8000000F00700A8429E
:100680006BD1206841F204098107C4F2020917D531
:10069000410705D5D9F8001041F4E061C9F8001010
:1006A000010705D5D9F8001041F46051C9F80010D0
:1006B000D9F80010A26821F0F0011143C9F8001028
:1006C000C00741D1D8F8000000F00700A8420CD9BB
:1006D000D8F8000020F007002843C8F80000D8F838
:1006E000000000F00700A84237D12068410707D575
:1006F000D9F80010E26821F4E0611143C9F8001054
:10070000000708D5D9F80000216920F4605040EABC
:10071000C100C9F80000D9F8002002F00C00082838
:1007200041F20020C0F27A0050D141F62673C2F3A4
:100730008341C0F60003595CD2033BD440F600105D
:10074000C0F23D00484341E0606802280AD0012819
:100750002AD159F8041C890308D4012001B0BDE84E
:10076000F08300BF59F8041C8901F6D5D9F80010B0
:1007700021F003010843C9F80000FFF7B1FE064667
:1007800041F28837D9F80000616800F00C00B0EB46
:10079000810F97D0FFF7A4FE801BB842F2D9032047
:1007A00001B0BDE8F08300BF59F8041C8907D4D517
:1007B000DCE700BFD9F8002041F60C73C2F34042D9
:1007C000C0F600039A5C4843B0FBF2F0D9F8001081
:1007D00041F60E72C1F30311C0F60002515C40F203
:1007E000080220FA01F140F20400C2F200000068A1
:1007F000C2F200021160FFF79BFE002001B0BDE8CD
:10080000F083000040F2080041F20401C2F200004F
:10081000C4F202010068096841F61E72C1F30221A8
:10082000C0F60002515CC8407047000040F208006A
:1008300041F20401C2F20000C4F20201006809683A
:1008400041F61E72C1F3C221C0F60002515CC840DD
:10085000704700002DE9F04182B0002868D00446BE
:10086000007841F20006C007C4F2020625D0706885
:1008700000F00C0004281BD0706800F00C00082861
:1008800002D17068C00313D46068002800F068814A
:10089000B0F5A02F00F07C81B0F5803F00F07C81A6
:1008A000306820F480303060306820F4802076E1B9
:1008B0003068800301D56068D0B32078800718D5F0
:1008C000706810F00C0F07D0706800F00C0008285A
:1008D0006ED17068C0036BD43068800702D5206980
:1008E000012825D13068616920F0F80040EAC10094
:1008F0003060207800071FD42078400732D4E569A3
:1009000095B1706800F00C00082840F08F80012D30
:100910000ED07068216A00F480328A4208D1616A80
:1009200000F47010884203D1002002B0BDE8F081CD
:10093000012002B0BDE8F081A069002862D000204B
:10094000C4F242200121C0F88014FFF7C9FD05461A
:10095000706A800700F18C80FFF7C2FD401B0228FF
:10096000F6D92AE1F06910F0805808D1F06940F01A
:100970008050F061F06900F080500090009847F2DC
:100980000007C4F200073868C00529D4386840F46D
:1009900080703860FFF7A4FD054600BF3868C005C9
:1009A0001ED4FFF79DFD401B6428F7D905E100BF69
:1009B0002069002840F20000C4F2422000F082804A
:1009C00001210160FFF78CFD054600BF30688007FC
:1009D0003FF588AFFFF784FD401B0228F6D9ECE015
:1009E000E068002800F08080052800F0978001284A
:1009F00000F09880306A20F001003062306A20F008
:100A0000040092E00020C4F242200021C0F88014CB
:100A1000FFF766FD054600BF706A80077FF56CAF83
:100A2000FFF75EFD401B0228F6D9C6E00027C4F29E
:100A3000422700203866FFF753FD022D05460BD1F3
:100A40003068800140F1BE80FFF74AFD401B02285C
:100A50004FF00300F4D968E7306880017FF564AF98
:100A6000FFF73EFD401B02284FF00300F4D95CE77E
:100A700040F20800C2F20000006844F6D351C1F20F
:100A80006201A0FB0101480A019000BF00BF01986C
:100A9000411E002801913FF42FAF00BF0198411E75
:100AA000002801913FF428AF00BF0198411E0028A3
:100AB00001913FF421AF00BF0198411E0028019130
:100AC000E4D119E700210160FFF70AFD054600BFE8
:100AD000306880077FF50DAFFFF702FD401B02284D
:100AE0004FF00300F4D920E7306A20F001003062B3
:100AF000306A20F004003062FFF7F2FC054641F254
:100B0000883700BF306A800720D5FFF7E9FC401B1B
:100B1000B8424FF00300F5D907E700BF306A40F054
:100B200004003062306A40F001003062FFF7D8FC08
:100B3000054641F2883700BF306A800706D4FFF7C8
:100B4000CFFC401BB842F7D937E000BFB8F1000F27
:100B50007FF4D5AEF06920F08050F061CFE600BFA1
:100B6000306820F480303060306820F480203060BD
:100B7000FFF7B6FC054600BF306880037FF59DAEE9
:100B8000FFF7AEFC401B64284FF00300F4D9CCE61D
:100B9000306840F480203060306840F4803030604D
:100BA000FFF79EFC054600BF306880033FF585AE29
:100BB000FFF796FC401B6428F6D9032002B0BDE87D
:100BC000F08100BF206AB0F5803F05D17168A2684E
:100BD00021F40031114371607168626A21F474116B
:100BE00010430843706001203866FFF779FC044623
:100BF000306880013FF598AEFFF772FC001B0228B9
:100C00004FF00300F4D990E6411E0020B0EB116FC5
:100C10001CBF012070474EF21002CEF2000251605C
:100C20004EF62351CEF20001F0230B7007219060A5
:100C300011607047704700007047000010B590F8D1
:100C40003C20012A4FF002023FD080F83D2002688C
:100C5000D2F804E0D2F808C00C682EF070032343E9
:100C600040F6FF34C4F20004A242536010DCB2F13B
:100C7000804F1FD040F20043C4F200039A4219D0C3
:100C800040F60003C4F200039A4213D017E000BFFD
:100C900040F60043C4F200039A420BD043F20043F3
:100CA000C4F201039A4205D042F60043C4F20103A4
:100CB0009A4204D149682CF08003194391600121C4
:100CC000002280F83D1080F83C20104610BD000046
:100CD000002804BF0120704710B5044690F83D007D
:100CE00028B9002084F83C00204600F085F8022056
:100CF00084F83D00206840F6FF330268C4F2000328
:100D000043F2004C9842C4F2010C21DCB0F1804F58
:100D10002CD040F20041C4F20001884226D040F6B7
:100D20000001C4F20001884220D0984224DCB0F1D6
:100D3000804F2FD040F20041C4F20001884229D0F8
:100D400040F60001C4F20001884223D026E000BF33
:100D500040F60041C4F20001884207D0604505D04A
:100D600042F60041C4F201018842DED1A16822F0BE
:100D700070020A439842DADD40F60041C4F20001F5
:100D8000884207D0604505D042F60041C4F2010117
:100D9000884203D1216922F440720A43A36922F0F8
:100DA0008001D4F804E0E268194360450160C26242
:100DB000C0F828E005D042F60041C4F201018842A3
:100DC00001D16169016301214161002084F846106D
:100DD00084F83E1084F83F1084F8401084F84110E5
:100DE00084F8421084F8431084F8441084F84510C5
:100DF00084F83D1010BD000080B582B0006840F658
:100E00000001C4F20001884214D040F20041C4F253
:100E1000000188420CD141F21C00C4F202000168BA
:100E200041F002010160006800F0020001900198A9
:100E300002B080BD41F21C00C4F202000168002231
:100E400041F0040101600068012100F004000090FD
:100E500000981E20FFF7BAFB1E2002B0BDE88040BC
:100E6000FFF7A4BB80B590F83C20012A4FF00202A6
:100E700000F0BF8080F83D20D0F800C04FF67772B8
:100E8000DCF8083023EA0202CCF808200B683F2B7C
:100E90001CDD5F2B20DD602B50D0B3F5005F6DD0E3
:100EA000702B40F0A080D1E901E3C968DCF808208C
:100EB00043EA0E0322F47F4243EA01211143CCF8B6
:100EC0000810DCF8081041F077018AE01F2B29DCBC
:100ED00063B3102B2AD086E0402B63D0502B40F018
:100EE0008280D1F804E0C968DCF82030DCF82020EA
:100EF00022F00102CCF82020DCF8182022F0F002C9
:100F000042EA011123F00A0242EA0E02CCF818105C
:100F1000CCF82020DCF8081041F0570121F0200126
:100F20005FE000BF202B01D0302B5CD1DCF8081033
:100F300021F07001194341F0070152E0D1F804E0BB
:100F4000C968DCF8203023F01003CCF82030DCF83E
:100F50001830DCF8202023F4704322F0A00243EA8A
:100F6000013142EA0E12CCF81810CCF82020DCF83F
:100F7000081041F0670121F0100132E0D1E901E3EE
:100F8000C968DCF8082043EA0E0322F47F4243EAF2
:100F900001211143CCF80810DCF8081041F480411D
:100FA0001FE000BFD1F804E0C968DCF82030DCF8AD
:100FB000202022F00102CCF82020DCF8182022F0BA
:100FC000F00242EA011123F00A0242EA0E02CCF8D2
:100FD0001810CCF82020DCF8081041F0470121F06F
:100FE0003001CCF808100121002280F83D1080F873
:100FF0003C20104680BD0000002804BF012070473F
:101000002DE9F04F81B0044690F83D008B4628B999
:10101000002084F83C00204600F0B0F8022084F85C
:101020003D00206844F20702816840F6FF33914397
:1010300081600268C4F2000343F2004C9842C4F29B
:10104000010C21DCB0F1804F2CD040F20041C4F201
:101050000001884226D040F60001C4F20001884217
:1010600020D0984224DCB0F1804F2FD040F20041D4
:10107000C4F20001884229D040F60001C4F2000108
:10108000884223D026E000BF40F60041C4F20001B0
:10109000884207D0604505D042F60041C4F2010104
:1010A0008842DED1A16822F070020A439842DADD5C
:1010B00040F60041C4F20001884207D0604505D0E7
:1010C00042F60041C4F20101884203D1216922F4B1
:1010D00040720A43A36922F080016268E5681943FF
:1010E00060450160C562826205D042F60041C4F2EB
:1010F0000101884201D16169016301214161826876
:101100008369D0F820C0DBE9005EDBE9027845EABC
:10111000020ADBF818504FF6FF7923EA090347EA81
:1011200005254FF6FC47BD43DBE9077643EA080394
:10113000DBF810202B4343EA072343EA02122CF08A
:101140002203DBF8147043EA0E0342EA063243EA54
:101150000713C0F808A08261036284F8461084F87F
:101160003E1084F83F1084F8421084F8431084F84D
:101170003D10002001B0BDE8F08F000080B586B0C2
:1011800001680020B1F1804F059001D006B080BD0C
:1011900041F21801C4F202014A6842F001024A60B9
:1011A0004A6802F001020192019A0A6842F00402C0
:1011B0000A60096801F00401019101990321CDE958
:1011C0000210049040F60000C4F2010002A9FFF7EB
:1011D00085F81C2000210022FFF7F8F91C20FFF7FA
:1011E000E5F906B080BD00007047000010B5016849
:1011F00004460869800744BFC8685FEA807039D434
:101200000869400744BFC8685FEA40703ED4086977
:10121000000744BFC8685FEA007045D40869C0068B
:1012200044BFC8685FEAC0604AD40869C0071CBFF1
:10123000C8685FEAC07051D10869000644BFC86839
:101240005FEA006052D40869400644BFC8685FEA9C
:10125000406053D40869800646BFC8685FEA806072
:1012600010BD6FF0200220460A61BDE81040FFF774
:10127000E3BC00BF6FF0020008610120207788699D
:10128000800743D02046FFF7AFFF45E06FF0040032
:10129000086102202077886910F4407F40D0204602
:1012A000FFF7A2FF42E000BF6FF0080008610420D2
:1012B0002077C86980073DD02046FFF795FF3FE0C3
:1012C0006FF01000086108202077C86910F4407F93
:1012D0003AD02046FFF788FF3CE000BF6FF00100E6
:1012E0000861204600F024FA2168A5E76FF080002D
:1012F00008612046FFF79EFC2168A4E76FF04000DC
:101300000861204600F05EFA2168A3E7204600F05D
:101310004DF8204600F00AFA2168002020776FE798
:10132000204600F043F8204600F000FA2168002033
:1013300020776CE7204600F039F8204600F0F6F9F7
:1013400021680020207769E7204600F02FF820462A
:1013500000F0ECF921680020207766E780B586B0C0
:1013600040F200410068C4F2000100228842049269
:1013700002D006B080BD00BF41F21800C4F20200E6
:10138000026842F004020260006800F0040001906C
:1013900001984020029002200390059001F58230D0
:1013A00002A9FEF79BFF06B080BD00007047000059
:1013B0002DE9F04190F83C30012B04BF0220BDE83C
:1013C000F0814FEAB202032A00F21381DFE802F053
:1013D00002468ED8036843F200461A6AC4F2010638
:1013E00022F001021A621D6A1A465C6852F818EF70
:1013F0008F68D1F800C025F00205B34245EA070521
:1014000005D042F60047C4F20107BB4205D1CF68C0
:1014100025F00C0527F004073D43B34205D042F602
:101420000046C4F20106B34205D1D1E9056724F4B0
:10143000407434433C432EF0730747EA0C075C606A
:101440009F614F6809695F631D629F6947F00807E4
:101450009F619F6927F004079F61C7E0036843F21B
:1014600000481A6AC4F2010822F010021A621D6ACA
:101470001A465C6852F818EF8F68D1F800C025F062
:101480002005434545EA071505D042F60047C4F25A
:101490000107BB4207D1CF686FF0400625F0C005B9
:1014A00006EA07163543434505D042F60046C4F226
:1014B0000106B34207D1D1E9056724F4406444EA48
:1014C000860444EA87042EF4E64747EA0C275C606A
:1014D0009F614F6809699F631D629F6947F40067B8
:1014E0009F619F6927F480679F617EE0036843F2F4
:1014F00000481A6AC4F2010822F480721A621D6A56
:101500001A465C6852F81CCF8F68D1F800E025F4C9
:101510000075434545EA072505D042F60047C4F269
:101520000107BB4208D1CF6840F2FF463F0225F4D5
:10153000406527EA06063543434505D042F6004696
:10154000C4F20106B34207D1D1E9056724F440543F
:1015500044EA061444EA07142CF0730747EA0E071E
:101560005C60DF614F680969DF631D62DF6947F016
:101570000807DF61DF6927F00407DF6136E000BF9D
:10158000036843F200471A6AC4F2010722F480524A
:101590001A621A46D3F820C05D6852F81C4FD1F881
:1015A00000E08E68BB4205D042F60047C4F2010756
:1015B000BB4204D14F6925F4804545EA87152CF4D8
:1015C000005747EA063724F4E64646EA0E265D60F1
:1015D000DE614E6809691E641F62DF6947F40067B7
:1015E000DF61DF6927F48067DF610902136819434F
:1015F0001160002180F83C100846BDE8F081000031
:10160000002804BF0120704710B5044690F83D0043
:1016100028B9002084F83C00204600F085F802201C
:1016200084F83D00206840F6FF330268C4F20003EE
:1016300043F2004C9842C4F2010C21DCB0F1804F1F
:101640002CD040F20041C4F20001884226D040F67E
:101650000001C4F20001884220D0984224DCB0F19D
:10166000804F2FD040F20041C4F20001884229D0BF
:1016700040F60001C4F20001884223D026E000BFFA
:1016800040F60041C4F20001884207D0604505D011
:1016900042F60041C4F201018842DED1A16822F085
:1016A00070020A439842DADD40F60041C4F20001BC
:1016B000884207D0604505D042F60041C4F20101DE
:1016C000884203D1216922F440720A43A36922F0BF
:1016D0008001D4F804E0E268194360450160C26209
:1016E000C0F828E005D042F60041C4F2010188426A
:1016F00001D16169016301214161002084F8461034
:1017000084F83E1084F83F1084F8401084F84110AB
:1017100084F8421084F8431084F8441084F845108B
:1017200084F83D1010BD00007047000070470000B5
:10173000B0B540F2C801C2F20001006809688842F1
:1017400028D040F25812C2F200021268904218BF2C
:10175000B0BD086840F27004C0F30010C2F200048B
:101760002074486AB4F90820C96A01FB02052068A0
:101770006560281A00F0E6FA48F20001C4F2F74169
:1017800000F01EFA0021C4F2201100F0F3FAE0602C
:101790002560B0BD426A42F210718A4202D2012134
:1017A00005E000BF426A8A4208D34FF6FF7140F25B
:1017B0007002C2F2000213891944118142F21071C1
:1017C0004162B0BD70470000002804BF012070478F
:1017D00010B5044690F83D0028B9002084F83C007C
:1017E000204600F05FF8242084F83D002068D4E90A
:1017F0000212C36823F40053C360036923F4405307
:101800001A430261D4E904231143C268194341F227
:101810000C639A431143C1604169A26921F440718C
:10182000114343F60002C4F201029042416103D029
:10183000FEF7E8FF02E000BFFEF7F8FF626819213B
:1018400048439100B0FBF1F048F21F51C5F2EB1193
:10185000A0FB01235A096FF0630302FB030032234C
:1018600003EB0010A0FB0101F02303EA51132068F1
:1018700003EB0212C1F3431111448160016921F4A9
:1018800090410161416921F02A014161C16841F43F
:101890000051C16000202021206484F83D1084F8AC
:1018A0003E1010BD70B586B040F60004C4F20104CD
:1018B000006804F5405100268842049602D006B024
:1018C00070BD00BF41F21800C4F20200016802AD11
:1018D00041F480410160016801F480410191019966
:1018E000016841F0040101600068294600F004002D
:1018F000019001984FF400700290022003900320A1
:1019000005902046FEF7EAFC4FF48060CDE9020620
:10191000204629460496FEF7E1FC06B070BD0000A3
:10192000FEE70000FEE70000FEE700007047000051
:1019300070470000FEF7DABD7047000040F2C800B3
:10194000C2F20000FFF752BC40F25810C2F2000091
:10195000FFF74CBCFEE7000092B0FEF7D5FD06ACE9
:10196000201D2421FEF752FC0220069001200A903F
:1019700010200B90002520460D95FEF76BFF28B137
:10198000EFF3108072B600BFFEE700BF0F20CDE975
:10199000000568460021CDE902550495FEF752FE88
:1019A00020B1EFF3108072B6FEE700BF002541F2D0
:1019B00018000995C4F20200016840F2004441F0A9
:1019C000040101600068C4F2000400F0040000900B
:1019D0000098802006900020C1F21100CDE9070593
:1019E00004F5823006A9FEF779FC40F2C800C2F285
:1019F00000004FF08041C0E900150321CDE9061534
:101A0000012144F62062CDE90815CDE90C1506A99F
:101A1000CDE90055C0E9025205618561CDE90A555D
:101A20000E95FFF7E9FA28B1EFF3108072B600BF08
:101A3000FEE700BF40F2C800C2F200006946FFF7AF
:101A4000FDF828B1EFF3108072B600BFFEE700BFCB
:101A500040F210100021C2F20000472242F20F7340
:101A60000391CDE90111CDE91011CDE90B11CDE9BB
:101A70000911C0E90042C0E9021301618161FFF769
:101A800027F928B1EFF3108072B600BFFEE700BF60
:101A90004FF48050009040F21010C2F200006946EE
:101AA000FFF7E0F920B1EFF3108072B6FEE700BF58
:101AB00040F21010C2F20000FFF7A2FD20B1EFF3D8
:101AC000108072B6FEE700BF40F21010C2F20000B4
:101AD00010A9FFF7B3F828B1EFF3108072B600BF7A
:101AE000FEE700BF6020069040F210100025C2F211
:101AF000000006A90022CDE907550A95FFF758FC1A
:101B000020B1EFF3108072B6FEE700BF40F2101074
:101B1000C2F20000FFF722FC40F2581004F5806189
:101B2000C2F200004FF6FF730995CDE90755CDE9E4
:101B3000005540F2CF2280E82600C0E903358561D8
:101B4000FFF7C6F820B1EFF3108072B6FEE700BFD2
:101B50004FF48050069040F25810C2F2000006A9DF
:101B6000FFF780F920B1EFF3108072B6FEE700BFF7
:101B700040F25810C2F200006946FFF75FF818B152
:101B8000EFF3108072B6FEE740F2700004F59A3170
:101B9000C2F2000040F8141F4FF4E13100220C2380
:101BA000C0E90112C0E90322C0E90532C261FFF7B2
:101BB0000BFE18B1EFF3108072B6FEE7FEE70000EF
:101BC0004FF47F0C1CEAD0121EBF1CEAD11392EA1C
:101BD0000C0F93EA0C0F00F0858090EA010F48BFCC
:101BE00042F4807240F4000C41F400002CF07F417C
:101BF00020F07F4000B5A2EB030281420FF2081CE7
:101C0000ACEB504E9EF800E0C0F100004FEA4E0EE3
:101C100000FB0EFC38BF49004FEA2C1C0CFB0EF3F6
:101C20004FEACE1E0EEB635E4FEA112C0EFB0CFC4E
:101C30004FEAC1214FEA1C5300FB031102F5FA02DF
:101C40004FEA112C0EFB0CFC4FEA01314FEADC4C41
:101C500000FB0C1142EB2242C14228BF09184CEB99
:101C600003335DF804EB10EB410143EBC250B2F5D6
:101C70007C0F38BF704729D512F0F00F1CBF00F160
:101C8000C04000F0004070470081828384858687D1
:101C900088898B8C8D8E8F919293959697999A9C2B
:101CA0009D9FA0A2A3A5A7A8AAACAEB0B2B3B5B79A
:101CB000B9BCBEC0C2C5C7C9CCCED1D4D7D9DCDF70
:101CC000E2E6E9ECF0F3F7FAFE0000004FEA400C20
:101CD0000CF1807CBCF17E4F28BF7047B0F1C04052
:101CE00000F00FB90CEAD11390EA010F48BF42F49B
:101CF0008072624538BF634507D213F47F0F16D058
:101D000080EA010000F00040704710B500F0B3F821
:101D1000097EFC3E00F005B880EA010000F00040BA
:101D2000704780EA010000F0004000F0EAB812F4C9
:101D30007F0F04BF0248704780EA010000F0E1B85D
:101D40000000C07F10F0004148BF4042B0FA80F36D
:101D500010FA03F2C3F19D030BD051EAC35101EB1A
:101D60001220530638BF704700F1010008BF20F071
:101D7000010070474FF47F0C1CEAD0121EBF1CEA12
:101D8000D11392EA0C0F93EA0C0F00F0478090EA0F
:101D9000010F48BF42F480724FF0004C4CEA002023
:101DA0004CEA012102EB0302A0FB0113A2F50002A1
:101DB000002918BF43F001035B0028BF4FEA33033B
:101DC00042EB22425FEA132C4CEBC2502EBFBCEB1D
:101DD000436FB2F57C0F70474FEA036CBCF1004FC4
:101DE00008BF20F00100B2F57C0F38BF70470BD55B
:101DF00082F0FF0212F5803FC8BF704700F1C0407B
:101E0000D8BF00F00040704700F5000C5FEA4C0CB2
:101E100048BF7047B0F1C04000F073B80CEAD1136E
:101E200090EA010F48BF42F48072624538BF6345B3
:101E300004D280EA010000F00040704710B500F0C5
:101E40001AF800BF8900013E00F007B800F009B899
:101E50005FEA410C5FEA1C6C08D080EA010000F0E8
:101E600050B85FEA400C5FEA1C6CF6D14FF00040BE
:101E7000A0F5800070470EF1020E2EF0030E5EF802
:101E8000044B244204D44FEA4102B2F17F4F11D8EF
:101E90004FEA4003B3F17F4F0CD80ED14FEAD07C0C
:101EA0000CEB4C0C0CF1020CB2F17F4F08BF4CEB69
:101EB000D17C04E04FF0080C01E04FEAD17C0CEB40
:101EC0004C0324FA03F404F00704B4F1040C06D222
:101ED0000EEB840CBDE810404CF0010C6047DFE8CD
:101EE0000CF0070802024FF00040A0F5800010BD82
:101EF0000846420018BFD2F1807288BF00F000404F
:101F000010BDFF2141EAD050C0057047010200001A
:101F10000000000000000102030406070809000099
:101F200000000102030402030405060708090A0B66
:101F30000C0D0E0F10100000581F000800000020AC
:101F4000100000006C010008681F0008100000204D
:101F50009807000088010008010000001000000040
:081F60000024F4000000000061
:0400000508000131BD
:00000001FF
